:020000040800F2
:1000000080050020450100088D0500084F05000807
:10001000890500088D010008230B0008000000007E
:100020000000000000000000000000005D07000864
:1000300017040008000000008F050008A908000848
:100040005F0100085F0100085F0100085F01000810
:100050005F0100085F0100085F0100085F01000800
:100060005F0100085F0100085F0100085F010008F0
:100070005F0100085F0100085F0100085F010008E0
:100080005F0100085F0100085F0100085F010008D0
:100090005F0100085F0100085F0100085F010008C0
:1000A0005F0100085F0100085F0100085F010008B0
:1000B0005F0100085F0100085F0100085F010008A0
:1000C0005F0100085F0100085F0100085F01000890
:1000D0005F010008190900085F0100085F010008BE
:1000E0005F0100085F0100085F0100085F01000870
:1000F0005F0100085F0100085F0100085F01000860
:100100005F0100085F0100085F0100085F0100084F
:100110005F0100085F0100085F0100085F0100083F
:100120005F0100085F0100085F0100085F0100082F
:10013000DFF80CD000F018F800480047890B0008E1
:10014000800500200648804706480047FEE7FEE796
:10015000FEE7FEE7FEE7FEE7FEE7FEE7FEE7FEE777
:10016000AD08000831010008064C074D06E0E068C4
:1001700040F0010394E8070098471034AC42F6D3EE
:10018000FFF7DAFF940C0008B40C000800BFFEE78C
:1001900070B504460D460BE014F8011B074800F04B
:1001A000BCFC00BF8021054800F00FFC0028F9D0FE
:1001B0002800A5F101018DB2EED170BD00380140DB
:1001C00000F0805111B10349086001E00249486024
:1001D00070470000040402400000024021B10268A0
:1001E00042F00102026004E002684FF6FE731A401A
:1001F0000260704730B58BB004460D4601210846B9
:1002000000F0C6F9104800F023F81048009001955E
:100210000020029003940490802005900020069016
:100220000790202008904FF44050099000200A9039
:100230006946054800F0D1F801220221024800F089
:10024000C3F80BB030BD0000580002400438014034
:1002500001684FF6FE7211400160002101604160AB
:100260008160C1604B49884208D14A4908394968D0
:1002700041F00F01474A083A51608AE0454914317C
:10028000884208D143490839496841F0F001414AA0
:10029000083A51607DE03F492831884208D13D4904
:1002A0000839496841F470613A4A083A516070E08F
:1002B00038493C31884208D136490839496841F407
:1002C0007041344A083A516063E032495031884203
:1002D00008D130490839496841F470212D4A083A5B
:1002E000516056E02B496431884208D129490839C8
:1002F000496841F47001274A083A516049E02549AC
:100300007831884208D123490839496841F0706141
:10031000204A083A51603CE01F49884206D1011F3B
:10032000096841F00F01021F116032E01A491431CF
:10033000884208D11849091F096841F0F001164A9E
:10034000121F116025E014492831884208D1124952
:10035000091F096841F470610F4A121F116018E00B
:100360000D493C31884208D10B49091F096841F405
:100370007041094A121F11600BE007495031884251
:1003800007D10549091F096841F47021024A121F6B
:100390001160704708000240080402400146002036
:1003A000002201F0805313B1054B1A6801E0054BA0
:1003B0001A6802EA01030BB1012000E00020704737
:1003C00000040240000002401AB103680B430360BE
:1003D00002E003688B430360704710B50022026897
:1003E00047F6F0739A430C6A8B6823430C692343E6
:1003F0004C6923438C692343CC6923434C6A2343D0
:100400008C6A23431A430260CB6843600B688360A5
:100410004B68C36010BD70472DE9F04102460025CE
:100420000026002000230024002791F803C00CF0D0
:100430000F0591F803C00CF0100CBCF1000F03D0B5
:1004400091F802C04CEA050591F800C0BCF1000F1C
:1004500031D0146800202BE04FF0010C0CFA00F3AF
:10046000B1F800C00CEA03069E4220D183004FF091
:100470000F0C0CFA03F7BC4305FA03FC4CEA040426
:1004800091F803C0BCF1280F06D14FF0010C0CFA13
:1004900000FCC2F814C00AE091F803C0BCF1480F98
:1004A00005D14FF0010C0CFA00FCC2F810C0401C42
:1004B0000828D1D31460B1F800C0BCF1FF0F34DDBF
:1004C000546800202EE000F1080C4FF0010808FAF3
:1004D0000CF3B1F800C00CEA03069E4221D1830060
:1004E0004FF00F0C0CFA03F7BC4305FA03FC4CEA7F
:1004F000040491F803C0BCF1280F05D100F1080CE9
:1005000008FA0CF8C2F8148091F803C0BCF1480F47
:1005100007D100F1080C4FF0010808FA0CF8C2F8F6
:100520001080401C0828CED35460BDE8F0814FF401
:1005300080320A4382618161826182698269704787
:10054000416170470AB1016100E04161704700BF3D
:10055000FEE7000008B50121102000F029F8102066
:100560008DF803000220ADF8000003208DF8020092
:1005700069460448FFF750FF02210248FFF7E0FFF9
:1005800008BD00000010014000BFFEE77047704743
:1005900029B1064A52690243044B5A6104E0034AF6
:1005A00052698243014B5A617047000000100240BB
:1005B00029B1064A92690243044B9A6104E0034A56
:1005C00092698243014B9A6170470000001002401B
:1005D0002DE9F041002100220025002300260024FF
:1005E00000278C46DFF86081D8F8048008F00C0101
:1005F00021B1042907D0082959D109E0DFF84C813D
:10060000C0F8008058E0DFF84481C0F8008053E073
:10061000DFF83481D8F8048008F47012DFF82881FC
:10062000D8F8048008F48035920C0D2A01D0921C71
:1006300000E0062235B9DFF8188102FB08F8C0F89F
:10064000008033E0DFF80081D8F82C8008F4803691
:10065000DFF8F480D8F82C8008F00F0808F10104C6
:1006600046B9DFF8E880B8FBF4F808FB02F8C0F8F8
:1006700000801BE0DFF8D080D8F82C80C8F3031886
:1006800008F10107DFF8C080D8F82C80C8F30328F0
:1006900008F1020CDFF8B480B8FBF7F808FB0CF89F
:1006A000B8FBF4F808FB02F8C0F8008004E0DFF8BB
:1006B0009C80C0F8008000BF00BFDFF88C80D8F8B5
:1006C000048008F0F0010909DFF8888018F801308B
:1006D000D0F8008028FA03F8C0F80480DFF86880BA
:1006E000D8F8048008F4E061090ADFF8688018F897
:1006F0000130D0F8048028FA03F8C0F80880DFF849
:100700004880D8F8048008F46051C90ADFF84480B2
:1007100018F80130D0F8048028FA03F8C0F80C80EB
:10072000DFF82480D8F8048008F44041890BDFF812
:10073000288018F80130D0F80C80B8FBF3F8C0F826
:100740001080BDE8F08100000010024000127A0025
:1007500000093D001400002024000020704710B55F
:1007600000F002F810BD00000CB5002001900090D0
:100770003F48006840F480303D49086000BF3C4875
:10078000006800F4003000900198401C019000982F
:1007900018B90198B0F5A06FF1D13548006800F4A0
:1007A000003010B10120009001E00020009000987E
:1007B00001285CD12F48006840F010002D490860E6
:1007C0000846006820F0030008600846006840F012
:1007D000020008602648406825494860084640688D
:1007E00048600846406840F4806048600846C06A37
:1007F000214908401E49C8620846C06A1F4908438B
:100800001B49C8620846006840F08060086000BF6D
:100810001748006800F000600028F9D014484068CC
:1008200020F47C10124948600846406840F4E81003
:1008300048600846006840F08070086000BF0C48BF
:10084000006800F000700028F9D00948406820F0E6
:100850000300074948600846406840F002004860CD
:1008600000BF0348406800F00C000828F9D10CBD17
:10087000001002400020024000F0FEFF440601008C
:10088000042808D14FF0E021096941F004014FF03C
:10089000E022116107E04FF0E021096921F0040135
:1008A0004FF0E022116170477047000010B5164804
:1008B000006840F001001449086008464068134988
:1008C00008401149486008460068114908400E492F
:1008D00008600846006820F48020086008464068E8
:1008E00020F4FE0048600846006820F0A050086030
:1008F0004FF47F0088600020C862FFF730FF4FF0A0
:1009000000600449086010BD001002400000FFF0C4
:10091000FFFFF6FE08ED00E010B540F225511D483E
:1009200000F060F810B31B4800F0F2F8C4B21A48A7
:10093000008800F40040C8B91748008800F48040DF
:1009400060B10A2C03D000201349088020E012482F
:10095000008840F400401049088019E00D2C06D1B1
:100960000D48008840F480400B49088010E00A4898
:100970000088C0F30D0009490C5407480088401C4A
:100980000549088008460088C72801DD0020088046
:1009900010BD00000038014030000020340000206D
:1009A00021B1828942F40052828104E082894DF6AD
:1009B000FF731A40828170471AB1838A0B43838286
:1009C00002E0838A8B438382704702460020B1F5A0
:1009D000007F00D100BF13880B400BB1012000E065
:1009E0000020704770B50246002400230025002037
:1009F00040F66A16B14200D100BFC1F3421501F0C2
:100A00001F03012606FA03F3012D02D19689334014
:100A100006E0022D02D1168A334001E0968A334067
:100A20000C12012606FA04F41688344013B10CB1F6
:100A3000012000E0002070BD2DE9F04786B005469A
:100A40000E460024A24600BFA1460027B08900B18F
:100A500000BF2F462C8A4CF6FF700440F0880443F8
:100A60002C82AC894EF6F3100440B08831890843DB
:100A7000718908430443AC81AC8A4FF6FF400440BF
:100A8000B0890443AC8201A8FFF7A2FD1F4887424A
:100A900002D1DDF810A001E0DDF80CA0A88900F477
:100AA000004040B10AEBCA0000EB0A10316849006F
:100AB000B0FBF1F807E00AEBCA0000EB0A1031685E
:100AC0008900B0FBF1F86420B8FBF0F004012009C4
:100AD000642101FB1089A88900F4004040B1322054
:100AE00000EBC900B0FBF1F000F00700044308E0A0
:100AF000322000EB09106421B0FBF1F000F00F0090
:100B000004432C8106B0BDE8F087000000380140A6
:100B100001468888C0F308007047C1F3080282804C
:100B2000704700BFFEE702E008C8121F08C1002A94
:100B3000FAD170477047002001E001C1121F002A5E
:100B4000FBD1704710B56FF00400FFF799FE0A481B
:100B500000680A49B0FBF1F00949087008460078BE
:100B600000EB4001C1EBC0104FF6FF7101EAC0007D
:100B70000449088010BD00000000002000127A0027
:100B8000280000202A000020FFF7DCFFFFF7E2FC2E
:100B90001B490E20FFF72EFB4FF4165000F038F8DB
:100BA00001211848FFF71AFB01211748FFF7F8FE4B
:100BB00025E04FF48020FFF7F1FB01280CD18004E1
:100BC000FFF7FEFA07210E48FFF7E2FA00220221A2
:100BD0000E48FFF7B7FC12E04FF40030FFF7DEFBE2
:100BE00001280CD14004FFF7EBFA402104484030C3
:100BF000FFF7CEFA012202210448FFF7A3FCD8E751
:100C0000FC00002058000240003801400010014064
:100C100010B586B00446012144F20400FFF7C8FC79
:100C20004FF40070ADF8140003208DF81600182062
:100C30008DF8170005A91548FFF7EEFB4FF480600B
:100C4000ADF8140004208DF8170005A90F48FFF730
:100C5000E3FB4FF4C0610D48FFF769FC01940020ED
:100C6000ADF80800ADF80A00ADF80C00ADF81000C2
:100C70000C20ADF80E0001A90548FFF7DDFE0122AA
:100C800040210348FFF798FE06B010BD0008014060
:100C900000380140B40C00080000002034000000BF
:100CA000260B0008E80C0008340000204C0500006A
:100CB000360B000800A24A040000000000000000FB
:100CC00001020304060708090000000001020304F2
:100CD00001020304060708090204060800000000D8
:080CE00000000000000000000C
:0400000508000131BD
:00000001FF
